{
  "abi": [
    {
      "inputs": [],
      "stateMutability": "nonpayable",
      "type": "constructor"
    },
    {
      "anonymous": false,
      "inputs": [
        {
          "indexed": false,
          "internalType": "uint8",
          "name": "version",
          "type": "uint8"
        }
      ],
      "name": "Initialized",
      "type": "event"
    },
    {
      "anonymous": false,
      "inputs": [
        {
          "indexed": false,
          "internalType": "address",
          "name": "vault",
          "type": "address"
        }
      ],
      "name": "NewVault",
      "type": "event"
    },
    {
      "anonymous": false,
      "inputs": [
        {
          "indexed": false,
          "internalType": "address",
          "name": "account",
          "type": "address"
        }
      ],
      "name": "Paused",
      "type": "event"
    },
    {
      "anonymous": false,
      "inputs": [
        {
          "indexed": true,
          "internalType": "address",
          "name": "from",
          "type": "address"
        },
        {
          "indexed": true,
          "internalType": "address",
          "name": "to",
          "type": "address"
        },
        {
          "indexed": true,
          "internalType": "uint256",
          "name": "version",
          "type": "uint256"
        },
        {
          "indexed": false,
          "internalType": "bytes",
          "name": "opaqueData",
          "type": "bytes"
        }
      ],
      "name": "TransactionDeposited",
      "type": "event"
    },
    {
      "anonymous": false,
      "inputs": [
        {
          "indexed": false,
          "internalType": "address",
          "name": "account",
          "type": "address"
        }
      ],
      "name": "Unpaused",
      "type": "event"
    },
    {
      "anonymous": false,
      "inputs": [
        {
          "indexed": true,
          "internalType": "bytes32",
          "name": "withdrawalHash",
          "type": "bytes32"
        },
        {
          "indexed": false,
          "internalType": "bool",
          "name": "success",
          "type": "bool"
        }
      ],
      "name": "WithdrawalFinalized",
      "type": "event"
    },
    {
      "anonymous": false,
      "inputs": [
        {
          "indexed": true,
          "internalType": "bytes32",
          "name": "withdrawalHash",
          "type": "bytes32"
        },
        {
          "indexed": true,
          "internalType": "address",
          "name": "from",
          "type": "address"
        },
        {
          "indexed": true,
          "internalType": "address",
          "name": "to",
          "type": "address"
        }
      ],
      "name": "WithdrawalProven",
      "type": "event"
    },
    {
      "inputs": [],
      "name": "GUARDIAN",
      "outputs": [
        {
          "internalType": "address",
          "name": "",
          "type": "address"
        }
      ],
      "stateMutability": "view",
      "type": "function"
    },
    {
      "inputs": [],
      "name": "L2_ORACLE",
      "outputs": [
        {
          "internalType": "contract L2OutputOracle",
          "name": "",
          "type": "address"
        }
      ],
      "stateMutability": "view",
      "type": "function"
    },
    {
      "inputs": [],
      "name": "SYSTEM_CONFIG",
      "outputs": [
        {
          "internalType": "contract SystemConfig",
          "name": "",
          "type": "address"
        }
      ],
      "stateMutability": "view",
      "type": "function"
    },
    {
      "inputs": [
        {
          "internalType": "address",
          "name": "_to",
          "type": "address"
        },
        {
          "internalType": "uint256",
          "name": "_value",
          "type": "uint256"
        },
        {
          "internalType": "uint64",
          "name": "_gasLimit",
          "type": "uint64"
        },
        {
          "internalType": "bool",
          "name": "_isCreation",
          "type": "bool"
        },
        {
          "internalType": "bytes",
          "name": "_data",
          "type": "bytes"
        }
      ],
      "name": "depositTransaction",
      "outputs": [],
      "stateMutability": "payable",
      "type": "function"
    },
    {
      "inputs": [
        {
          "internalType": "address",
          "name": "_from",
          "type": "address"
        },
        {
          "internalType": "address",
          "name": "_to",
          "type": "address"
        },
        {
          "internalType": "uint256",
          "name": "_mint",
          "type": "uint256"
        },
        {
          "internalType": "uint256",
          "name": "_value",
          "type": "uint256"
        },
        {
          "internalType": "uint64",
          "name": "_gasLimit",
          "type": "uint64"
        },
        {
          "internalType": "bool",
          "name": "_isCreation",
          "type": "bool"
        },
        {
          "internalType": "bytes",
          "name": "_data",
          "type": "bytes"
        }
      ],
      "name": "depositTransactionL2",
      "outputs": [],
      "stateMutability": "payable",
      "type": "function"
    },
    {
      "inputs": [],
      "name": "donateETH",
      "outputs": [],
      "stateMutability": "payable",
      "type": "function"
    },
    {
      "inputs": [
        {
          "components": [
            {
              "internalType": "uint256",
              "name": "nonce",
              "type": "uint256"
            },
            {
              "internalType": "address",
              "name": "sender",
              "type": "address"
            },
            {
              "internalType": "address",
              "name": "target",
              "type": "address"
            },
            {
              "internalType": "uint256",
              "name": "value",
              "type": "uint256"
            },
            {
              "internalType": "uint256",
              "name": "gasLimit",
              "type": "uint256"
            },
            {
              "internalType": "bytes",
              "name": "data",
              "type": "bytes"
            }
          ],
          "internalType": "struct Types.WithdrawalTransaction",
          "name": "_tx",
          "type": "tuple"
        }
      ],
      "name": "finalizeWithdrawalTransaction",
      "outputs": [],
      "stateMutability": "nonpayable",
      "type": "function"
    },
    {
      "inputs": [
        {
          "internalType": "bytes32",
          "name": "",
          "type": "bytes32"
        }
      ],
      "name": "finalizedWithdrawals",
      "outputs": [
        {
          "internalType": "bool",
          "name": "",
          "type": "bool"
        }
      ],
      "stateMutability": "view",
      "type": "function"
    },
    {
      "inputs": [],
      "name": "guardian",
      "outputs": [
        {
          "internalType": "address",
          "name": "",
          "type": "address"
        }
      ],
      "stateMutability": "view",
      "type": "function"
    },
    {
      "inputs": [
        {
          "internalType": "contract L2OutputOracle",
          "name": "_l2Oracle",
          "type": "address"
        },
        {
          "internalType": "address",
          "name": "_guardian",
          "type": "address"
        },
        {
          "internalType": "contract SystemConfig",
          "name": "_systemConfig",
          "type": "address"
        },
        {
          "internalType": "bool",
          "name": "_paused",
          "type": "bool"
        }
      ],
      "name": "initialize",
      "outputs": [],
      "stateMutability": "nonpayable",
      "type": "function"
    },
    {
      "inputs": [
        {
          "internalType": "uint256",
          "name": "_l2OutputIndex",
          "type": "uint256"
        }
      ],
      "name": "isOutputFinalized",
      "outputs": [
        {
          "internalType": "bool",
          "name": "",
          "type": "bool"
        }
      ],
      "stateMutability": "view",
      "type": "function"
    },
    {
      "inputs": [],
      "name": "l2Oracle",
      "outputs": [
        {
          "internalType": "contract L2OutputOracle",
          "name": "",
          "type": "address"
        }
      ],
      "stateMutability": "view",
      "type": "function"
    },
    {
      "inputs": [],
      "name": "l2Sender",
      "outputs": [
        {
          "internalType": "address",
          "name": "",
          "type": "address"
        }
      ],
      "stateMutability": "view",
      "type": "function"
    },
    {
      "inputs": [
        {
          "internalType": "uint64",
          "name": "_byteCount",
          "type": "uint64"
        }
      ],
      "name": "minimumGasLimit",
      "outputs": [
        {
          "internalType": "uint64",
          "name": "",
          "type": "uint64"
        }
      ],
      "stateMutability": "pure",
      "type": "function"
    },
    {
      "inputs": [],
      "name": "nativeTokenVault",
      "outputs": [
        {
          "internalType": "address",
          "name": "",
          "type": "address"
        }
      ],
      "stateMutability": "view",
      "type": "function"
    },
    {
      "inputs": [],
      "name": "params",
      "outputs": [
        {
          "internalType": "uint128",
          "name": "prevBaseFee",
          "type": "uint128"
        },
        {
          "internalType": "uint64",
          "name": "prevBoughtGas",
          "type": "uint64"
        },
        {
          "internalType": "uint64",
          "name": "prevBlockNum",
          "type": "uint64"
        }
      ],
      "stateMutability": "view",
      "type": "function"
    },
    {
      "inputs": [],
      "name": "pause",
      "outputs": [],
      "stateMutability": "nonpayable",
      "type": "function"
    },
    {
      "inputs": [],
      "name": "paused",
      "outputs": [
        {
          "internalType": "bool",
          "name": "",
          "type": "bool"
        }
      ],
      "stateMutability": "view",
      "type": "function"
    },
    {
      "inputs": [
        {
          "components": [
            {
              "internalType": "uint256",
              "name": "nonce",
              "type": "uint256"
            },
            {
              "internalType": "address",
              "name": "sender",
              "type": "address"
            },
            {
              "internalType": "address",
              "name": "target",
              "type": "address"
            },
            {
              "internalType": "uint256",
              "name": "value",
              "type": "uint256"
            },
            {
              "internalType": "uint256",
              "name": "gasLimit",
              "type": "uint256"
            },
            {
              "internalType": "bytes",
              "name": "data",
              "type": "bytes"
            }
          ],
          "internalType": "struct Types.WithdrawalTransaction",
          "name": "_tx",
          "type": "tuple"
        },
        {
          "internalType": "uint256",
          "name": "_l2OutputIndex",
          "type": "uint256"
        },
        {
          "components": [
            {
              "internalType": "bytes32",
              "name": "version",
              "type": "bytes32"
            },
            {
              "internalType": "bytes32",
              "name": "stateRoot",
              "type": "bytes32"
            },
            {
              "internalType": "bytes32",
              "name": "messagePasserStorageRoot",
              "type": "bytes32"
            },
            {
              "internalType": "bytes32",
              "name": "latestBlockhash",
              "type": "bytes32"
            }
          ],
          "internalType": "struct Types.OutputRootProof",
          "name": "_outputRootProof",
          "type": "tuple"
        },
        {
          "internalType": "bytes[]",
          "name": "_withdrawalProof",
          "type": "bytes[]"
        }
      ],
      "name": "proveWithdrawalTransaction",
      "outputs": [],
      "stateMutability": "nonpayable",
      "type": "function"
    },
    {
      "inputs": [
        {
          "internalType": "bytes32",
          "name": "",
          "type": "bytes32"
        }
      ],
      "name": "provenWithdrawals",
      "outputs": [
        {
          "internalType": "bytes32",
          "name": "outputRoot",
          "type": "bytes32"
        },
        {
          "internalType": "uint128",
          "name": "timestamp",
          "type": "uint128"
        },
        {
          "internalType": "uint128",
          "name": "l2OutputIndex",
          "type": "uint128"
        }
      ],
      "stateMutability": "view",
      "type": "function"
    },
    {
      "inputs": [
        {
          "internalType": "address",
          "name": "_addr",
          "type": "address"
        }
      ],
      "name": "setSharedSequencer",
      "outputs": [],
      "stateMutability": "nonpayable",
      "type": "function"
    },
    {
      "inputs": [
        {
          "internalType": "address",
          "name": "_vault",
          "type": "address"
        }
      ],
      "name": "setVault",
      "outputs": [],
      "stateMutability": "nonpayable",
      "type": "function"
    },
    {
      "inputs": [],
      "name": "sharedSequencerAddr",
      "outputs": [
        {
          "internalType": "address",
          "name": "",
          "type": "address"
        }
      ],
      "stateMutability": "view",
      "type": "function"
    },
    {
      "inputs": [],
      "name": "systemConfig",
      "outputs": [
        {
          "internalType": "contract SystemConfig",
          "name": "",
          "type": "address"
        }
      ],
      "stateMutability": "view",
      "type": "function"
    },
    {
      "inputs": [],
      "name": "unpause",
      "outputs": [],
      "stateMutability": "nonpayable",
      "type": "function"
    },
    {
      "inputs": [],
      "name": "version",
      "outputs": [
        {
          "internalType": "string",
          "name": "",
          "type": "string"
        }
      ],
      "stateMutability": "view",
      "type": "function"
    },
    {
      "stateMutability": "payable",
      "type": "receive"
    }
  ],
  "address": "0x21ebA7264243bbfde423eAD6eDdd1dE39Dc54045",
  "args": [],
  "bytecode": "0x60e06040523480156200001157600080fd5b5060016080819052600860a05260c08190526200003590600090819081906200003b565b62000237565b600054600290610100900460ff161580156200005e575060005460ff8083169116105b620000c75760405162461bcd60e51b815260206004820152602e60248201527f496e697469616c697a61626c653a20636f6e747261637420697320616c72656160448201526d191e481a5b9a5d1a585b1a5e995960921b60648201526084015b60405180910390fd5b6000805461ffff191660ff831617610100908117909155603280546001600160a01b031990811661dead1790915560358054603680546001600160a01b0389811691861691909117909155603780548a831695169490941790935585151592891690930260ff19166001600160a81b0319909316929092171790556200014c62000194565b6000805461ff001916905560405160ff821681527f7f26b83ff96e1f2b6a682f133852f6798a09c465da95921460cefb38474024989060200160405180910390a15050505050565b600054610100900460ff16620002015760405162461bcd60e51b815260206004820152602b60248201527f496e697469616c697a61626c653a20636f6e7472616374206973206e6f74206960448201526a6e697469616c697a696e6760a81b6064820152608401620000be565b60408051606081018252633b9aca0080825260006020830152436001600160401b031691909201819052600160c01b0217600155565b60805160a05160c051615fc862000267600039600061146f015260006114460152600061141d0152615fc86000f3fe6080604052600436106101a45760003560e01c8063724c184c116100e1578063a14238e71161008a578063e965084c11610064578063e965084c14610597578063e9e05c4214610623578063f049875014610636578063fecf97341461066157600080fd5b8063a14238e71461048d578063a35d99df146104bd578063cff0ab96146104f657600080fd5b80638c3152e9116100bb5780638c3152e91461040e5780639b5f694a1461042e5780639bf62d821461046057600080fd5b8063724c184c146103ce5780638456cb59146103f95780638b4c40b0146101c957600080fd5b80634870496f1161014e5780635c975abb116101285780635c975abb1461033757806364e130cf146103615780636817031b1461038e5780636dbffb78146103ae57600080fd5b80634870496f146102d557806354fd4d50146102f55780635657cf0d1461031757600080fd5b80633f4ba83a1161017f5780633f4ba83a14610280578063452a93201461029557806345f493cb146102c257600080fd5b80621c2ff6146101d057806323a874101461022657806333d7e2bd1461025357600080fd5b366101cb576101c93334620186a0600060405180602001604052806000815250610681565b005b600080fd5b3480156101dc57600080fd5b50603554610100900473ffffffffffffffffffffffffffffffffffffffff165b60405173ffffffffffffffffffffffffffffffffffffffff90911681526020015b60405180910390f35b34801561023257600080fd5b506039546101fc9073ffffffffffffffffffffffffffffffffffffffff1681565b34801561025f57600080fd5b506036546101fc9073ffffffffffffffffffffffffffffffffffffffff1681565b34801561028c57600080fd5b506101c96109be565b3480156102a157600080fd5b506037546101fc9073ffffffffffffffffffffffffffffffffffffffff1681565b6101c96102d03660046153fe565b610ac3565b3480156102e157600080fd5b506101c96102f0366004615544565b610de1565b34801561030157600080fd5b5061030a611416565b60405161021d919061569a565b34801561032357600080fd5b506101c96103323660046156ad565b6114b9565b34801561034357600080fd5b506035546103519060ff1681565b604051901515815260200161021d565b34801561036d57600080fd5b506038546101fc9073ffffffffffffffffffffffffffffffffffffffff1681565b34801561039a57600080fd5b506101c96103a93660046156ad565b61164a565b3480156103ba57600080fd5b506103516103c93660046156ca565b61180d565b3480156103da57600080fd5b5060375473ffffffffffffffffffffffffffffffffffffffff166101fc565b34801561040557600080fd5b506101c96118cc565b34801561041a57600080fd5b506101c96104293660046156e3565b6119ce565b34801561043a57600080fd5b506035546101fc90610100900473ffffffffffffffffffffffffffffffffffffffff1681565b34801561046c57600080fd5b506032546101fc9073ffffffffffffffffffffffffffffffffffffffff1681565b34801561049957600080fd5b506103516104a83660046156ca565b60336020526000908152604090205460ff1681565b3480156104c957600080fd5b506104dd6104d8366004615718565b612324565b60405167ffffffffffffffff909116815260200161021d565b34801561050257600080fd5b5060015461055e906fffffffffffffffffffffffffffffffff81169067ffffffffffffffff7001000000000000000000000000000000008204811691780100000000000000000000000000000000000000000000000090041683565b604080516fffffffffffffffffffffffffffffffff909416845267ffffffffffffffff928316602085015291169082015260600161021d565b3480156105a357600080fd5b506105f56105b23660046156ca565b603460205260009081526040902080546001909101546fffffffffffffffffffffffffffffffff8082169170010000000000000000000000000000000090041683565b604080519384526fffffffffffffffffffffffffffffffff928316602085015291169082015260600161021d565b6101c9610631366004615733565b610681565b34801561064257600080fd5b5060365473ffffffffffffffffffffffffffffffffffffffff166101fc565b34801561066d57600080fd5b506101c961067c3660046157ae565b61233d565b8260005a905083156107385773ffffffffffffffffffffffffffffffffffffffff87161561073857604080517f08c379a00000000000000000000000000000000000000000000000000000000081526020600482015260248101919091527f4f7074696d69736d506f7274616c3a206d7573742073656e6420746f2061646460448201527f72657373283029207768656e206372656174696e67206120636f6e747261637460648201526084015b60405180910390fd5b6107428351612324565b67ffffffffffffffff168567ffffffffffffffff1610156107e5576040517f08c379a000000000000000000000000000000000000000000000000000000000815260206004820152602360248201527f4f7074696d69736d506f7274616c3a20676173206c696d697420746f6f20736d60448201527f616c6c0000000000000000000000000000000000000000000000000000000000606482015260840161072f565b6201d4c083511115610853576040517f08c379a000000000000000000000000000000000000000000000000000000000815260206004820152601e60248201527f4f7074696d69736d506f7274616c3a206461746120746f6f206c617267650000604482015260640161072f565b60385473ffffffffffffffffffffffffffffffffffffffff16156108f557603860009054906101000a900473ffffffffffffffffffffffffffffffffffffffff1673ffffffffffffffffffffffffffffffffffffffff1663d0e30db0876040518263ffffffff1660e01b81526004016000604051808303818588803b1580156108db57600080fd5b505af11580156108ef573d6000803e3d6000fd5b50505050505b33328114610916575033731111000000000000000000000000000000001111015b60003488888888604051602001610931959493929190615808565b604051602081830303815290604052905060008973ffffffffffffffffffffffffffffffffffffffff168373ffffffffffffffffffffffffffffffffffffffff167fb3813568d9991fc951961fcb4c784893574240a28925604d09fc577c55bb7c32846040516109a1919061569a565b60405180910390a450506109b5828261254b565b50505050505050565b60375473ffffffffffffffffffffffffffffffffffffffff163314610a65576040517f08c379a000000000000000000000000000000000000000000000000000000000815260206004820152602960248201527f4f7074696d69736d506f7274616c3a206f6e6c7920677561726469616e20636160448201527f6e20756e70617573650000000000000000000000000000000000000000000000606482015260840161072f565b603580547fffffffffffffffffffffffffffffffffffffffffffffffffffffffffffffff001690556040513381527f5db9ee0a495bf2e6ff9c91a7834c1ba4fdd244a5e8aa4e537bd38aeae4b073aa906020015b60405180910390a1565b8260005a60395490915073ffffffffffffffffffffffffffffffffffffffff163314610b71576040517f08c379a000000000000000000000000000000000000000000000000000000000815260206004820152603560248201527f4f7074696d69736d506f7274616c3a204f6e6c792053657175656e636572206360448201527f616e2063616c6c20746869732066756e6374696f6e0000000000000000000000606482015260840161072f565b8315610c1d5773ffffffffffffffffffffffffffffffffffffffff881615610c1d57604080517f08c379a00000000000000000000000000000000000000000000000000000000081526020600482015260248101919091527f4f7074696d69736d506f7274616c3a206d7573742073656e6420746f2061646460448201527f72657373283029207768656e206372656174696e67206120636f6e7472616374606482015260840161072f565b610c278351612324565b67ffffffffffffffff168567ffffffffffffffff161015610cca576040517f08c379a000000000000000000000000000000000000000000000000000000000815260206004820152602360248201527f4f7074696d69736d506f7274616c3a20676173206c696d697420746f6f20736d60448201527f616c6c0000000000000000000000000000000000000000000000000000000000606482015260840161072f565b6201d4c083511115610d38576040517f08c379a000000000000000000000000000000000000000000000000000000000815260206004820152601e60248201527f4f7074696d69736d506f7274616c3a206461746120746f6f206c617267650000604482015260640161072f565b60008787878787604051602001610d53959493929190615808565b604051602081830303815290604052905060008973ffffffffffffffffffffffffffffffffffffffff168b73ffffffffffffffffffffffffffffffffffffffff167fb3813568d9991fc951961fcb4c784893574240a28925604d09fc577c55bb7c3284604051610dc3919061569a565b60405180910390a450610dd6828261254b565b505050505050505050565b60355460ff1615610e4e576040517f08c379a000000000000000000000000000000000000000000000000000000000815260206004820152601660248201527f4f7074696d69736d506f7274616c3a2070617573656400000000000000000000604482015260640161072f565b3073ffffffffffffffffffffffffffffffffffffffff16856040015173ffffffffffffffffffffffffffffffffffffffff1603610f0d576040517f08c379a000000000000000000000000000000000000000000000000000000000815260206004820152603f60248201527f4f7074696d69736d506f7274616c3a20796f752063616e6e6f742073656e642060448201527f6d6573736167657320746f2074686520706f7274616c20636f6e747261637400606482015260840161072f565b6035546040517fa25ae55700000000000000000000000000000000000000000000000000000000815260048101869052600091610100900473ffffffffffffffffffffffffffffffffffffffff169063a25ae55790602401606060405180830381865afa158015610f82573d6000803e3d6000fd5b505050506040513d601f19601f82011682018060405250810190610fa6919061588d565b519050610fc0610fbb368690038601866158f2565b612878565b811461104e576040517f08c379a000000000000000000000000000000000000000000000000000000000815260206004820152602960248201527f4f7074696d69736d506f7274616c3a20696e76616c6964206f7574707574207260448201527f6f6f742070726f6f660000000000000000000000000000000000000000000000606482015260840161072f565b6000611059876128d4565b6000818152603460209081526040918290208251606081018452815481526001909101546fffffffffffffffffffffffffffffffff80821693830184905270010000000000000000000000000000000090910416928101929092529192509015806111735750805160355460408084015190517fa25ae5570000000000000000000000000000000000000000000000000000000081526fffffffffffffffffffffffffffffffff909116600482015261010090910473ffffffffffffffffffffffffffffffffffffffff169063a25ae55790602401606060405180830381865afa15801561114b573d6000803e3d6000fd5b505050506040513d601f19601f8201168201806040525081019061116f919061588d565b5114155b6111ff576040517f08c379a000000000000000000000000000000000000000000000000000000000815260206004820152603760248201527f4f7074696d69736d506f7274616c3a207769746864726177616c20686173682060448201527f68617320616c7265616479206265656e2070726f76656e000000000000000000606482015260840161072f565b60408051602081018490526000918101829052606001604080517fffffffffffffffffffffffffffffffffffffffffffffffffffffffffffffffe0818403018152828252805160209182012090830181905292506112c89101604080517fffffffffffffffffffffffffffffffffffffffffffffffffffffffffffffffe0818403018152828201909152600182527f01000000000000000000000000000000000000000000000000000000000000006020830152906112be888a615958565b8a60400135612904565b611354576040517f08c379a000000000000000000000000000000000000000000000000000000000815260206004820152603260248201527f4f7074696d69736d506f7274616c3a20696e76616c696420776974686472617760448201527f616c20696e636c7573696f6e2070726f6f660000000000000000000000000000606482015260840161072f565b604080516060810182528581526fffffffffffffffffffffffffffffffff42811660208084019182528c831684860190815260008981526034835286812095518655925190518416700100000000000000000000000000000000029316929092176001909301929092558b830151908c0151925173ffffffffffffffffffffffffffffffffffffffff918216939091169186917f67a6208cfcc0801d50f6cbe764733f4fddf66ac0b04442061a8a8c0cb6b63f629190a4505050505050505050565b60606114417f0000000000000000000000000000000000000000000000000000000000000000612928565b61146a7f0000000000000000000000000000000000000000000000000000000000000000612928565b6114937f0000000000000000000000000000000000000000000000000000000000000000612928565b6040516020016114a5939291906159dc565b604051602081830303815290604052905090565b73ffffffffffffffffffffffffffffffffffffffff811661155c576040517f08c379a000000000000000000000000000000000000000000000000000000000815260206004820152602a60248201527f4f7074696d69736d506f7274616c3a207661756c742063616e6e6f742062652060448201527f6164647265737328302900000000000000000000000000000000000000000000606482015260840161072f565b60375473ffffffffffffffffffffffffffffffffffffffff163314611603576040517f08c379a000000000000000000000000000000000000000000000000000000000815260206004820152602b60248201527f4f7074696d69736d506f7274616c3a206f6e6c7920677561726469616e20636160448201527f6e20736574207661756c74000000000000000000000000000000000000000000606482015260840161072f565b603980547fffffffffffffffffffffffff00000000000000000000000000000000000000001673ffffffffffffffffffffffffffffffffffffffff92909216919091179055565b73ffffffffffffffffffffffffffffffffffffffff81166116ed576040517f08c379a000000000000000000000000000000000000000000000000000000000815260206004820152602a60248201527f4f7074696d69736d506f7274616c3a207661756c742063616e6e6f742062652060448201527f6164647265737328302900000000000000000000000000000000000000000000606482015260840161072f565b60375473ffffffffffffffffffffffffffffffffffffffff163314611794576040517f08c379a000000000000000000000000000000000000000000000000000000000815260206004820152602b60248201527f4f7074696d69736d506f7274616c3a206f6e6c7920677561726469616e20636160448201527f6e20736574207661756c74000000000000000000000000000000000000000000606482015260840161072f565b603880547fffffffffffffffffffffffff00000000000000000000000000000000000000001673ffffffffffffffffffffffffffffffffffffffff83169081179091556040519081527f2cd7a531712f8899004c782d9607e0886d1dbc91bfac7be88dadf6750d9e14199060200160405180910390a150565b6035546040517fa25ae557000000000000000000000000000000000000000000000000000000008152600481018390526000916118c69161010090910473ffffffffffffffffffffffffffffffffffffffff169063a25ae55790602401606060405180830381865afa158015611887573d6000803e3d6000fd5b505050506040513d601f19601f820116820180604052508101906118ab919061588d565b602001516fffffffffffffffffffffffffffffffff16612a65565b92915050565b60375473ffffffffffffffffffffffffffffffffffffffff163314611973576040517f08c379a000000000000000000000000000000000000000000000000000000000815260206004820152602760248201527f4f7074696d69736d506f7274616c3a206f6e6c7920677561726469616e20636160448201527f6e20706175736500000000000000000000000000000000000000000000000000606482015260840161072f565b603580547fffffffffffffffffffffffffffffffffffffffffffffffffffffffffffffff001660011790556040513381527f62e78cea01bee320cd4e420270b5ea74000d11b0c9f74754ebdbfc544b05a25890602001610ab9565b60355460ff1615611a3b576040517f08c379a000000000000000000000000000000000000000000000000000000000815260206004820152601660248201527f4f7074696d69736d506f7274616c3a2070617573656400000000000000000000604482015260640161072f565b60325473ffffffffffffffffffffffffffffffffffffffff1661dead14611ae4576040517f08c379a000000000000000000000000000000000000000000000000000000000815260206004820152603f60248201527f4f7074696d69736d506f7274616c3a2063616e206f6e6c79207472696767657260448201527f206f6e65207769746864726177616c20706572207472616e73616374696f6e00606482015260840161072f565b6000611aef826128d4565b60008181526034602090815260408083208151606081018352815481526001909101546fffffffffffffffffffffffffffffffff80821694830185905270010000000000000000000000000000000090910416918101919091529293509003611bda576040517f08c379a000000000000000000000000000000000000000000000000000000000815260206004820152603260248201527f4f7074696d69736d506f7274616c3a207769746864726177616c20686173206e60448201527f6f74206265656e2070726f76656e207965740000000000000000000000000000606482015260840161072f565b603560019054906101000a900473ffffffffffffffffffffffffffffffffffffffff1673ffffffffffffffffffffffffffffffffffffffff1663887862726040518163ffffffff1660e01b8152600401602060405180830381865afa158015611c47573d6000803e3d6000fd5b505050506040513d601f19601f82011682018060405250810190611c6b9190615a52565b81602001516fffffffffffffffffffffffffffffffff161015611d36576040517f08c379a000000000000000000000000000000000000000000000000000000000815260206004820152604b60248201527f4f7074696d69736d506f7274616c3a207769746864726177616c2074696d657360448201527f74616d70206c657373207468616e204c32204f7261636c65207374617274696e60648201527f672074696d657374616d70000000000000000000000000000000000000000000608482015260a40161072f565b611d5581602001516fffffffffffffffffffffffffffffffff16612a65565b611e07576040517f08c379a000000000000000000000000000000000000000000000000000000000815260206004820152604560248201527f4f7074696d69736d506f7274616c3a2070726f76656e2077697468647261776160448201527f6c2066696e616c697a6174696f6e20706572696f6420686173206e6f7420656c60648201527f6170736564000000000000000000000000000000000000000000000000000000608482015260a40161072f565b60355460408281015190517fa25ae5570000000000000000000000000000000000000000000000000000000081526fffffffffffffffffffffffffffffffff9091166004820152600091610100900473ffffffffffffffffffffffffffffffffffffffff169063a25ae55790602401606060405180830381865afa158015611e93573d6000803e3d6000fd5b505050506040513d601f19601f82011682018060405250810190611eb7919061588d565b8251815191925014611f71576040517f08c379a000000000000000000000000000000000000000000000000000000000815260206004820152604960248201527f4f7074696d69736d506f7274616c3a206f757470757420726f6f742070726f7660448201527f656e206973206e6f74207468652073616d652061732063757272656e74206f7560648201527f7470757420726f6f740000000000000000000000000000000000000000000000608482015260a40161072f565b611f9081602001516fffffffffffffffffffffffffffffffff16612a65565b612042576040517f08c379a000000000000000000000000000000000000000000000000000000000815260206004820152604360248201527f4f7074696d69736d506f7274616c3a206f75747075742070726f706f73616c2060448201527f66696e616c697a6174696f6e20706572696f6420686173206e6f7420656c617060648201527f7365640000000000000000000000000000000000000000000000000000000000608482015260a40161072f565b60008381526033602052604090205460ff16156120e1576040517f08c379a000000000000000000000000000000000000000000000000000000000815260206004820152603560248201527f4f7074696d69736d506f7274616c3a207769746864726177616c20686173206160448201527f6c7265616479206265656e2066696e616c697a65640000000000000000000000606482015260840161072f565b6060840151479081101561217257603854606086015173ffffffffffffffffffffffffffffffffffffffff90911690632e1a7d4d90612121908490615a9a565b6040518263ffffffff1660e01b815260040161213f91815260200190565b600060405180830381600087803b15801561215957600080fd5b505af115801561216d573d6000803e3d6000fd5b505050505b600084815260336020908152604080832080547fffffffffffffffffffffffffffffffffffffffffffffffffffffffffffffff00166001179055908701516032805473ffffffffffffffffffffffffffffffffffffffff9092167fffffffffffffffffffffffff00000000000000000000000000000000000000009092169190911790558601516080870151606088015160a089015161221493929190612b0a565b603280547fffffffffffffffffffffffff00000000000000000000000000000000000000001661dead17905560405190915085907fdb5c7652857aa163daadd670e116628fb42e869d8ac4251ef8971d9e5727df1b9061227990841515815260200190565b60405180910390a28015801561228f5750326001145b1561231c576040517f08c379a000000000000000000000000000000000000000000000000000000000815260206004820152602160248201527f4f7074696d69736d506f7274616c3a207769746864726177616c206661696c6560448201527f6400000000000000000000000000000000000000000000000000000000000000606482015260840161072f565b505050505050565b6000612331826010615ab1565b6118c690615208615ae1565b600054600290610100900460ff1615801561235f575060005460ff8083169116105b6123eb576040517f08c379a000000000000000000000000000000000000000000000000000000000815260206004820152602e60248201527f496e697469616c697a61626c653a20636f6e747261637420697320616c72656160448201527f647920696e697469616c697a6564000000000000000000000000000000000000606482015260840161072f565b600080547fffffffffffffffffffffffffffffffffffffffffffffffffffffffffffff00001660ff831617610100908117909155603280547fffffffffffffffffffffffff000000000000000000000000000000000000000090811661dead17909155603580546036805473ffffffffffffffffffffffffffffffffffffffff89811691861691909117909155603780548a83169516949094179093558515159289169093027fffffffffffffffffffffffffffffffffffffffffffffffffffffffffffffff00167fffffffffffffffffffffff000000000000000000000000000000000000000000909316929092171790556124e6612b68565b600080547fffffffffffffffffffffffffffffffffffffffffffffffffffffffffffff00ff16905560405160ff821681527f7f26b83ff96e1f2b6a682f133852f6798a09c465da95921460cefb38474024989060200160405180910390a15050505050565b600154600090612581907801000000000000000000000000000000000000000000000000900467ffffffffffffffff1643615a9a565b9050600061258d612c4b565b90506000816020015160ff16826000015163ffffffff166125ae9190615b3c565b905082156126e5576001546000906125e5908390700100000000000000000000000000000000900467ffffffffffffffff16615ba4565b90506000836040015160ff16836125fc9190615c18565b60015461261c9084906fffffffffffffffffffffffffffffffff16615c18565b6126269190615b3c565b600154909150600090612677906126509084906fffffffffffffffffffffffffffffffff16615cd4565b866060015163ffffffff168760a001516fffffffffffffffffffffffffffffffff16612d11565b905060018611156126a6576126a361265082876040015160ff1660018a61269e9190615a9a565b612d30565b90505b6fffffffffffffffffffffffffffffffff16780100000000000000000000000000000000000000000000000067ffffffffffffffff4316021760015550505b60018054869190601090612718908490700100000000000000000000000000000000900467ffffffffffffffff16615ae1565b92506101000a81548167ffffffffffffffff021916908367ffffffffffffffff160217905550816000015163ffffffff16600160000160109054906101000a900467ffffffffffffffff1667ffffffffffffffff1613156127fb576040517f08c379a000000000000000000000000000000000000000000000000000000000815260206004820152603e60248201527f5265736f757263654d65746572696e673a2063616e6e6f7420627579206d6f7260448201527f6520676173207468616e20617661696c61626c6520676173206c696d69740000606482015260840161072f565b600154600090612827906fffffffffffffffffffffffffffffffff1667ffffffffffffffff8816615d48565b9050600061283948633b9aca00612d85565b6128439083615d85565b905060005a6128529088615a9a565b90508082111561286e5761286e6128698284615a9a565b612d9c565b5050505050505050565b600081600001518260200151836040015184606001516040516020016128b7949392919093845260208401929092526040830152606082015260800190565b604051602081830303815290604052805190602001209050919050565b80516020808301516040808501516060860151608087015160a088015193516000976128b7979096959101615d99565b60008061291086612dca565b905061291e81868686612dfc565b9695505050505050565b60608160000361296b57505060408051808201909152600181527f3000000000000000000000000000000000000000000000000000000000000000602082015290565b8160005b8115612995578061297f81615df0565b915061298e9050600a83615d85565b915061296f565b60008167ffffffffffffffff8111156129b0576129b06152f2565b6040519080825280601f01601f1916602001820160405280156129da576020820181803683370190505b5090505b8415612a5d576129ef600183615a9a565b91506129fc600a86615e28565b612a07906030615e3c565b60f81b818381518110612a1c57612a1c615e54565b60200101907effffffffffffffffffffffffffffffffffffffffffffffffffffffffffffff1916908160001a905350612a56600a86615d85565b94506129de565b949350505050565b6000603560019054906101000a900473ffffffffffffffffffffffffffffffffffffffff1673ffffffffffffffffffffffffffffffffffffffff1663f4daa2916040518163ffffffff1660e01b8152600401602060405180830381865afa158015612ad4573d6000803e3d6000fd5b505050506040513d601f19601f82011682018060405250810190612af89190615a52565b612b029083615e3c565b421192915050565b6000806000612b1a866000612e2c565b905080612b50576308c379a06000526020805278185361666543616c6c3a204e6f7420656e6f756768206761736058526064601cfd5b600080855160208701888b5af1979650505050505050565b600054610100900460ff16612bff576040517f08c379a000000000000000000000000000000000000000000000000000000000815260206004820152602b60248201527f496e697469616c697a61626c653a20636f6e7472616374206973206e6f74206960448201527f6e697469616c697a696e67000000000000000000000000000000000000000000606482015260840161072f565b60408051606081018252633b9aca00808252600060208301524367ffffffffffffffff169190920181905278010000000000000000000000000000000000000000000000000217600155565b6040805160c08082018352600080835260208301819052828401819052606083018190526080830181905260a083015260365483517fcc731b020000000000000000000000000000000000000000000000000000000081529351929373ffffffffffffffffffffffffffffffffffffffff9091169263cc731b02926004808401939192918290030181865afa158015612ce8573d6000803e3d6000fd5b505050506040513d601f19601f82011682018060405250810190612d0c9190615ea8565b905090565b6000612d26612d208585612e4a565b83612e5a565b90505b9392505050565b6000670de0b6b3a7640000612d71612d488583615b3c565b612d5a90670de0b6b3a7640000615ba4565b612d6c85670de0b6b3a7640000615c18565b612e69565b612d7b9086615c18565b612d269190615b3c565b600081831015612d955781612d29565b5090919050565b6000805a90505b825a612daf9083615a9a565b1015612dc557612dbe82615df0565b9150612da3565b505050565b60608180519060200120604051602001612de691815260200190565b6040516020818303038152906040529050919050565b6000612e2384612e0d878686612e9a565b8051602091820120825192909101919091201490565b95945050505050565b600080603f83619c4001026040850201603f5a021015949350505050565b600081831215612d955781612d29565b6000818312612d955781612d29565b6000612d29670de0b6b3a764000083612e8186613918565b612e8b9190615c18565b612e959190615b3c565b613b5c565b60606000845111612f07576040517f08c379a000000000000000000000000000000000000000000000000000000000815260206004820152601560248201527f4d65726b6c65547269653a20656d707479206b65790000000000000000000000604482015260640161072f565b6000612f1284613d9b565b90506000612f1f86613e87565b9050600084604051602001612f3691815260200190565b60405160208183030381529060405290506000805b845181101561388f576000858281518110612f6857612f68615e54565b602002602001015190508451831115613003576040517f08c379a000000000000000000000000000000000000000000000000000000000815260206004820152602e60248201527f4d65726b6c65547269653a206b657920696e646578206578636565647320746f60448201527f74616c206b6579206c656e677468000000000000000000000000000000000000606482015260840161072f565b826000036130bc57805180516020918201206040516130519261302b92910190815260200190565b604051602081830303815290604052858051602091820120825192909101919091201490565b6130b7576040517f08c379a000000000000000000000000000000000000000000000000000000000815260206004820152601d60248201527f4d65726b6c65547269653a20696e76616c696420726f6f742068617368000000604482015260640161072f565b613213565b80515160201161317257805180516020918201206040516130e69261302b92910190815260200190565b6130b7576040517f08c379a000000000000000000000000000000000000000000000000000000000815260206004820152602760248201527f4d65726b6c65547269653a20696e76616c6964206c6172676520696e7465726e60448201527f616c206861736800000000000000000000000000000000000000000000000000606482015260840161072f565b805184516020808701919091208251919092012014613213576040517f08c379a000000000000000000000000000000000000000000000000000000000815260206004820152602660248201527f4d65726b6c65547269653a20696e76616c696420696e7465726e616c206e6f6460448201527f6520686173680000000000000000000000000000000000000000000000000000606482015260840161072f565b61321f60106001615e3c565b816020015151036133fb578451830361339357613259816020015160108151811061324c5761324c615e54565b6020026020010151613eea565b965060008751116132ec576040517f08c379a000000000000000000000000000000000000000000000000000000000815260206004820152603b60248201527f4d65726b6c65547269653a2076616c7565206c656e677468206d75737420626560448201527f2067726561746572207468616e207a65726f20286272616e6368290000000000606482015260840161072f565b600186516132fa9190615a9a565b8214613388576040517f08c379a000000000000000000000000000000000000000000000000000000000815260206004820152603a60248201527f4d65726b6c65547269653a2076616c7565206e6f6465206d757374206265206c60448201527f617374206e6f646520696e2070726f6f6620286272616e636829000000000000606482015260840161072f565b505050505050612d29565b60008584815181106133a7576133a7615e54565b602001015160f81c60f81b60f81c9050600082602001518260ff16815181106133d2576133d2615e54565b602002602001015190506133e58161404a565b95506133f2600186615e3c565b9450505061387c565b6002816020015151036137f45760006134138261406f565b905060008160008151811061342a5761342a615e54565b016020015160f81c90506000613441600283615f47565b61344c906002615f69565b9050600061345d848360ff16614093565b9050600061346b8a89614093565b9050600061347983836140c9565b90508083511461350b576040517f08c379a000000000000000000000000000000000000000000000000000000000815260206004820152603a60248201527f4d65726b6c65547269653a20706174682072656d61696e646572206d7573742060448201527f736861726520616c6c206e6962626c65732077697468206b6579000000000000606482015260840161072f565b60ff851660021480613520575060ff85166003145b1561370f57808251146135b5576040517f08c379a000000000000000000000000000000000000000000000000000000000815260206004820152603d60248201527f4d65726b6c65547269653a206b65792072656d61696e646572206d757374206260448201527f65206964656e746963616c20746f20706174682072656d61696e646572000000606482015260840161072f565b6135cf876020015160018151811061324c5761324c615e54565b9c5060008d5111613662576040517f08c379a000000000000000000000000000000000000000000000000000000000815260206004820152603960248201527f4d65726b6c65547269653a2076616c7565206c656e677468206d75737420626560448201527f2067726561746572207468616e207a65726f20286c6561662900000000000000606482015260840161072f565b60018c516136709190615a9a565b88146136fe576040517f08c379a000000000000000000000000000000000000000000000000000000000815260206004820152603860248201527f4d65726b6c65547269653a2076616c7565206e6f6465206d757374206265206c60448201527f617374206e6f646520696e2070726f6f6620286c656166290000000000000000606482015260840161072f565b505050505050505050505050612d29565b60ff85161580613722575060ff85166001145b156137615761374e876020015160018151811061374157613741615e54565b602002602001015161404a565b995061375a818a615e3c565b98506137e9565b6040517f08c379a000000000000000000000000000000000000000000000000000000000815260206004820152603260248201527f4d65726b6c65547269653a2072656365697665642061206e6f6465207769746860448201527f20616e20756e6b6e6f776e207072656669780000000000000000000000000000606482015260840161072f565b50505050505061387c565b6040517f08c379a000000000000000000000000000000000000000000000000000000000815260206004820152602860248201527f4d65726b6c65547269653a20726563656976656420616e20756e70617273656160448201527f626c65206e6f6465000000000000000000000000000000000000000000000000606482015260840161072f565b508061388781615df0565b915050612f4b565b506040517f08c379a000000000000000000000000000000000000000000000000000000000815260206004820152602560248201527f4d65726b6c65547269653a2072616e206f7574206f662070726f6f6620656c6560448201527f6d656e7473000000000000000000000000000000000000000000000000000000606482015260840161072f565b6000808213613983576040517f08c379a000000000000000000000000000000000000000000000000000000000815260206004820152600960248201527f554e444546494e45440000000000000000000000000000000000000000000000604482015260640161072f565b600060606139908461417d565b03609f8181039490941b90931c6c465772b2bbbb5f824b15207a3081018102606090811d6d0388eaa27412d5aca026815d636e018202811d6d0df99ac502031bf953eff472fdcc018202811d6d13cdffb29d51d99322bdff5f2211018202811d6d0a0f742023def783a307a986912e018202811d6d01920d8043ca89b5239253284e42018202811d6c0b7a86d7375468fac667a0a527016c29508e458543d8aa4df2abee7883018302821d6d0139601a2efabe717e604cbb4894018302821d6d02247f7a7b6594320649aa03aba1018302821d7fffffffffffffffffffffffffffffffffffffff73c0c716a594e00d54e3c4cbc9018302821d7ffffffffffffffffffffffffffffffffffffffdc7b88c420e53a9890533129f6f01830290911d7fffffffffffffffffffffffffffffffffffffff465fda27eb4d63ded474e5f832019091027ffffffffffffffff5f6af8f7b3396644f18e157960000000000000000000000000105711340daa0d5f769dba1915cef59f0815a5506027d0267a36c0c95b3975ab3ee5b203a7614a3f75373f047d803ae7b6687f2b393909302929092017d57115e47018c7177eebf7cd370a3356a1b7863008a5ae8028c72b88642840160ae1d92915050565b60007ffffffffffffffffffffffffffffffffffffffffffffffffdb731c958f34d94c18213613b8d57506000919050565b680755bf798b4a1bf1e58212613bff576040517f08c379a000000000000000000000000000000000000000000000000000000000815260206004820152600c60248201527f4558505f4f564552464c4f570000000000000000000000000000000000000000604482015260640161072f565b6503782dace9d9604e83901b059150600060606bb17217f7d1cf79abc9e3b39884821b056b80000000000000000000000001901d6bb17217f7d1cf79abc9e3b39881029093037fffffffffffffffffffffffffffffffffffffffdbf3ccf1604d263450f02a550481018102606090811d6d0277594991cfc85f6e2461837cd9018202811d7fffffffffffffffffffffffffffffffffffffe5adedaa1cb095af9e4da10e363c018202811d6db1bbb201f443cf962f1a1d3db4a5018202811d7ffffffffffffffffffffffffffffffffffffd38dc772608b0ae56cce01296c0eb018202811d6e05180bb14799ab47a8a8cb2a527d57016d02d16720577bd19bf614176fe9ea6c10fe68e7fd37d0007b713f765084018402831d9081019084017ffffffffffffffffffffffffffffffffffffffe2c69812cf03b0763fd454a8f7e010290911d6e0587f503bb6ea29d25fcb7401964500190910279d835ebba824c98fb31b83b2ca45c000000000000000000000000010574029d9dc38563c32e5c2f6dc192ee70ef65f9978af30260c3939093039290921c92915050565b80516060908067ffffffffffffffff811115613db957613db96152f2565b604051908082528060200260200182016040528015613dfe57816020015b6040805180820190915260608082526020820152815260200190600190039081613dd75790505b50915060005b81811015613e80576040518060400160405280858381518110613e2957613e29615e54565b60200260200101518152602001613e58868481518110613e4b57613e4b615e54565b6020026020010151614253565b815250838281518110613e6d57613e6d615e54565b6020908102919091010152600101613e04565b5050919050565b606080604051905082518060011b603f8101601f1916830160405280835250602084016020830160005b83811015613edf578060011b82018184015160001a8060041c8253600f811660018301535050600101613eb1565b509295945050505050565b60606000806000613efa85614266565b919450925090506000816001811115613f1557613f15615f8c565b14613fa2576040517f08c379a000000000000000000000000000000000000000000000000000000000815260206004820152603960248201527f524c505265616465723a206465636f646564206974656d207479706520666f7260448201527f206279746573206973206e6f7420612064617461206974656d00000000000000606482015260840161072f565b613fac8284615e3c565b85511461403b576040517f08c379a000000000000000000000000000000000000000000000000000000000815260206004820152603460248201527f524c505265616465723a2062797465732076616c756520636f6e7461696e732060448201527f616e20696e76616c69642072656d61696e646572000000000000000000000000606482015260840161072f565b612e2385602001518484614cd3565b606060208260000151106140665761406182613eea565b6118c6565b6118c682614d67565b60606118c661408e836020015160008151811061324c5761324c615e54565b613e87565b6060825182106140b257506040805160208101909152600081526118c6565b612d2983838486516140c49190615a9a565b614d7d565b60008082518451106140dc5782516140df565b83515b90505b808210801561416657508282815181106140fe576140fe615e54565b602001015160f81c60f81b7effffffffffffffffffffffffffffffffffffffffffffffffffffffffffffff191684838151811061413d5761413d615e54565b01602001517fff0000000000000000000000000000000000000000000000000000000000000016145b15614176578160010191506140e2565b5092915050565b60008082116141e8576040517f08c379a000000000000000000000000000000000000000000000000000000000815260206004820152600960248201527f554e444546494e45440000000000000000000000000000000000000000000000604482015260640161072f565b5060016fffffffffffffffffffffffffffffffff821160071b82811c67ffffffffffffffff1060061b1782811c63ffffffff1060051b1782811c61ffff1060041b1782811c60ff10600390811b90911783811c600f1060021b1783811c909110821b1791821c111790565b60606118c661426183614f55565b61503e565b600080600080846000015111614324576040517f08c379a000000000000000000000000000000000000000000000000000000000815260206004820152604a60248201527f524c505265616465723a206c656e677468206f6620616e20524c50206974656d60448201527f206d7573742062652067726561746572207468616e207a65726f20746f20626560648201527f206465636f6461626c6500000000000000000000000000000000000000000000608482015260a40161072f565b6020840151805160001a607f8111614349576000600160009450945094505050614ccc565b60b7811161455757600061435e608083615a9a565b905080876000015111614419576040517f08c379a000000000000000000000000000000000000000000000000000000000815260206004820152604e60248201527f524c505265616465723a206c656e677468206f6620636f6e74656e74206d757360448201527f742062652067726561746572207468616e20737472696e67206c656e6774682060648201527f2873686f727420737472696e6729000000000000000000000000000000000000608482015260a40161072f565b6001838101517fff0000000000000000000000000000000000000000000000000000000000000016908214158061449257507f80000000000000000000000000000000000000000000000000000000000000007fff00000000000000000000000000000000000000000000000000000000000000821610155b614544576040517f08c379a000000000000000000000000000000000000000000000000000000000815260206004820152604d60248201527f524c505265616465723a20696e76616c6964207072656669782c2073696e676c60448201527f652062797465203c203078383020617265206e6f74207072656669786564202860648201527f73686f727420737472696e672900000000000000000000000000000000000000608482015260a40161072f565b5060019550935060009250614ccc915050565b60bf81116148a557600061456c60b783615a9a565b905080876000015111614627576040517f08c379a000000000000000000000000000000000000000000000000000000000815260206004820152605160248201527f524c505265616465723a206c656e677468206f6620636f6e74656e74206d757360448201527f74206265203e207468616e206c656e677468206f6620737472696e67206c656e60648201527f67746820286c6f6e6720737472696e6729000000000000000000000000000000608482015260a40161072f565b60018301517fff00000000000000000000000000000000000000000000000000000000000000166000819003614705576040517f08c379a000000000000000000000000000000000000000000000000000000000815260206004820152604a60248201527f524c505265616465723a206c656e677468206f6620636f6e74656e74206d757360448201527f74206e6f74206861766520616e79206c656164696e67207a65726f7320286c6f60648201527f6e6720737472696e672900000000000000000000000000000000000000000000608482015260a40161072f565b600184015160088302610100031c603781116147c9576040517f08c379a000000000000000000000000000000000000000000000000000000000815260206004820152604860248201527f524c505265616465723a206c656e677468206f6620636f6e74656e74206d757360448201527f742062652067726561746572207468616e20353520627974657320286c6f6e6760648201527f20737472696e6729000000000000000000000000000000000000000000000000608482015260a40161072f565b6147d38184615e3c565b895111614888576040517f08c379a000000000000000000000000000000000000000000000000000000000815260206004820152604c60248201527f524c505265616465723a206c656e677468206f6620636f6e74656e74206d757360448201527f742062652067726561746572207468616e20746f74616c206c656e677468202860648201527f6c6f6e6720737472696e67290000000000000000000000000000000000000000608482015260a40161072f565b614893836001615e3c565b9750955060009450614ccc9350505050565b60f781116149865760006148ba60c083615a9a565b905080876000015111614975576040517f08c379a000000000000000000000000000000000000000000000000000000000815260206004820152604a60248201527f524c505265616465723a206c656e677468206f6620636f6e74656e74206d757360448201527f742062652067726561746572207468616e206c697374206c656e67746820287360648201527f686f7274206c6973742900000000000000000000000000000000000000000000608482015260a40161072f565b600195509350849250614ccc915050565b600061499360f783615a9a565b905080876000015111614a4e576040517f08c379a000000000000000000000000000000000000000000000000000000000815260206004820152604d60248201527f524c505265616465723a206c656e677468206f6620636f6e74656e74206d757360448201527f74206265203e207468616e206c656e677468206f66206c697374206c656e677460648201527f6820286c6f6e67206c6973742900000000000000000000000000000000000000608482015260a40161072f565b60018301517fff00000000000000000000000000000000000000000000000000000000000000166000819003614b2c576040517f08c379a000000000000000000000000000000000000000000000000000000000815260206004820152604860248201527f524c505265616465723a206c656e677468206f6620636f6e74656e74206d757360448201527f74206e6f74206861766520616e79206c656164696e67207a65726f7320286c6f60648201527f6e67206c69737429000000000000000000000000000000000000000000000000608482015260a40161072f565b600184015160088302610100031c60378111614bf0576040517f08c379a000000000000000000000000000000000000000000000000000000000815260206004820152604660248201527f524c505265616465723a206c656e677468206f6620636f6e74656e74206d757360448201527f742062652067726561746572207468616e20353520627974657320286c6f6e6760648201527f206c697374290000000000000000000000000000000000000000000000000000608482015260a40161072f565b614bfa8184615e3c565b895111614caf576040517f08c379a000000000000000000000000000000000000000000000000000000000815260206004820152604a60248201527f524c505265616465723a206c656e677468206f6620636f6e74656e74206d757360448201527f742062652067726561746572207468616e20746f74616c206c656e677468202860648201527f6c6f6e67206c6973742900000000000000000000000000000000000000000000608482015260a40161072f565b614cba836001615e3c565b9750955060019450614ccc9350505050565b9193909250565b60608167ffffffffffffffff811115614cee57614cee6152f2565b6040519080825280601f01601f191660200182016040528015614d18576020820181803683370190505b5090508115612d29576000614d2d8486615e3c565b90506020820160005b84811015614d4e578281015182820152602001614d36565b84811115614d5d576000858301525b5050509392505050565b60606118c6826020015160008460000151614cd3565b60608182601f011015614dec576040517f08c379a000000000000000000000000000000000000000000000000000000000815260206004820152600e60248201527f736c6963655f6f766572666c6f77000000000000000000000000000000000000604482015260640161072f565b828284011015614e58576040517f08c379a000000000000000000000000000000000000000000000000000000000815260206004820152600e60248201527f736c6963655f6f766572666c6f77000000000000000000000000000000000000604482015260640161072f565b81830184511015614ec5576040517f08c379a000000000000000000000000000000000000000000000000000000000815260206004820152601160248201527f736c6963655f6f75744f66426f756e6473000000000000000000000000000000604482015260640161072f565b606082158015614ee45760405191506000825260208201604052614f4c565b6040519150601f8416801560200281840101858101878315602002848b0101015b81831015614f1d578051835260209283019201614f05565b5050858452601f017fffffffffffffffffffffffffffffffffffffffffffffffffffffffffffffffe016604052505b50949350505050565b60408051808201909152600080825260208201526000825111615020576040517f08c379a000000000000000000000000000000000000000000000000000000000815260206004820152604a60248201527f524c505265616465723a206c656e677468206f6620616e20524c50206974656d60448201527f206d7573742062652067726561746572207468616e207a65726f20746f20626560648201527f206465636f6461626c6500000000000000000000000000000000000000000000608482015260a40161072f565b50604080518082019091528151815260209182019181019190915290565b6060600080600061504e85614266565b91945092509050600181600181111561506957615069615f8c565b146150f6576040517f08c379a000000000000000000000000000000000000000000000000000000000815260206004820152603860248201527f524c505265616465723a206465636f646564206974656d207479706520666f7260448201527f206c697374206973206e6f742061206c697374206974656d0000000000000000606482015260840161072f565b84516151028385615e3c565b1461518f576040517f08c379a000000000000000000000000000000000000000000000000000000000815260206004820152603260248201527f524c505265616465723a206c697374206974656d2068617320616e20696e766160448201527f6c696420646174612072656d61696e6465720000000000000000000000000000606482015260840161072f565b604080516020808252610420820190925290816020015b60408051808201909152600080825260208201528152602001906001900390816151a65790505093506000835b8651811015615294576000806152196040518060400160405280858c600001516151fd9190615a9a565b8152602001858c602001516152129190615e3c565b9052614266565b5091509150604051806040016040528083836152359190615e3c565b8152602001848b6020015161524a9190615e3c565b81525088858151811061525f5761525f615e54565b6020908102919091010152615275600185615e3c565b93506152818183615e3c565b61528b9084615e3c565b925050506151d3565b50845250919392505050565b73ffffffffffffffffffffffffffffffffffffffff811681146152c257600080fd5b50565b803567ffffffffffffffff811681146152dd57600080fd5b919050565b803580151581146152dd57600080fd5b7f4e487b7100000000000000000000000000000000000000000000000000000000600052604160045260246000fd5b604051601f82017fffffffffffffffffffffffffffffffffffffffffffffffffffffffffffffffe016810167ffffffffffffffff81118282101715615368576153686152f2565b604052919050565b600082601f83011261538157600080fd5b813567ffffffffffffffff81111561539b5761539b6152f2565b6153cc60207fffffffffffffffffffffffffffffffffffffffffffffffffffffffffffffffe0601f84011601615321565b8181528460208386010111156153e157600080fd5b816020850160208301376000918101602001919091529392505050565b600080600080600080600060e0888a03121561541957600080fd5b8735615424816152a0565b96506020880135615434816152a0565b95506040880135945060608801359350615450608089016152c5565b925061545e60a089016152e2565b915060c088013567ffffffffffffffff81111561547a57600080fd5b6154868a828b01615370565b91505092959891949750929550565b600060c082840312156154a757600080fd5b60405160c0810167ffffffffffffffff82821081831117156154cb576154cb6152f2565b8160405282935084358352602085013591506154e6826152a0565b816020840152604085013591506154fc826152a0565b816040840152606085013560608401526080850135608084015260a085013591508082111561552a57600080fd5b5061553785828601615370565b60a0830152505092915050565b600080600080600085870360e081121561555d57600080fd5b863567ffffffffffffffff8082111561557557600080fd5b6155818a838b01615495565b97506020890135965060807fffffffffffffffffffffffffffffffffffffffffffffffffffffffffffffffc0840112156155ba57600080fd5b60408901955060c08901359250808311156155d457600080fd5b828901925089601f8401126155e857600080fd5b82359150808211156155f957600080fd5b508860208260051b840101111561560f57600080fd5b959894975092955050506020019190565b60005b8381101561563b578181015183820152602001615623565b8381111561564a576000848401525b50505050565b60008151808452615668816020860160208601615620565b601f017fffffffffffffffffffffffffffffffffffffffffffffffffffffffffffffffe0169290920160200192915050565b602081526000612d296020830184615650565b6000602082840312156156bf57600080fd5b8135612d29816152a0565b6000602082840312156156dc57600080fd5b5035919050565b6000602082840312156156f557600080fd5b813567ffffffffffffffff81111561570c57600080fd5b612a5d84828501615495565b60006020828403121561572a57600080fd5b612d29826152c5565b600080600080600060a0868803121561574b57600080fd5b8535615756816152a0565b94506020860135935061576b604087016152c5565b9250615779606087016152e2565b9150608086013567ffffffffffffffff81111561579557600080fd5b6157a188828901615370565b9150509295509295909350565b600080600080608085870312156157c457600080fd5b84356157cf816152a0565b935060208501356157df816152a0565b925060408501356157ef816152a0565b91506157fd606086016152e2565b905092959194509250565b8581528460208201527fffffffffffffffff0000000000000000000000000000000000000000000000008460c01b16604082015282151560f81b60488201526000825161585c816049850160208701615620565b919091016049019695505050505050565b80516fffffffffffffffffffffffffffffffff811681146152dd57600080fd5b60006060828403121561589f57600080fd5b6040516060810181811067ffffffffffffffff821117156158c2576158c26152f2565b604052825181526158d56020840161586d565b60208201526158e66040840161586d565b60408201529392505050565b60006080828403121561590457600080fd5b6040516080810181811067ffffffffffffffff82111715615927576159276152f2565b8060405250823581526020830135602082015260408301356040820152606083013560608201528091505092915050565b600067ffffffffffffffff80841115615973576159736152f2565b8360051b6020615984818301615321565b86815291850191818101903684111561599c57600080fd5b865b848110156159d0578035868111156159b65760008081fd5b6159c236828b01615370565b84525091830191830161599e565b50979650505050505050565b600084516159ee818460208901615620565b80830190507f2e000000000000000000000000000000000000000000000000000000000000008082528551615a2a816001850160208a01615620565b60019201918201528351615a45816002840160208801615620565b0160020195945050505050565b600060208284031215615a6457600080fd5b5051919050565b7f4e487b7100000000000000000000000000000000000000000000000000000000600052601160045260246000fd5b600082821015615aac57615aac615a6b565b500390565b600067ffffffffffffffff80831681851681830481118215151615615ad857615ad8615a6b565b02949350505050565b600067ffffffffffffffff808316818516808303821115615b0457615b04615a6b565b01949350505050565b7f4e487b7100000000000000000000000000000000000000000000000000000000600052601260045260246000fd5b600082615b4b57615b4b615b0d565b7fffffffffffffffffffffffffffffffffffffffffffffffffffffffffffffffff83147f800000000000000000000000000000000000000000000000000000000000000083141615615b9f57615b9f615a6b565b500590565b6000808312837f800000000000000000000000000000000000000000000000000000000000000001831281151615615bde57615bde615a6b565b837f7fffffffffffffffffffffffffffffffffffffffffffffffffffffffffffffff018313811615615c1257615c12615a6b565b50500390565b60007f7fffffffffffffffffffffffffffffffffffffffffffffffffffffffffffffff600084136000841385830485118282161615615c5957615c59615a6b565b7f80000000000000000000000000000000000000000000000000000000000000006000871286820588128184161615615c9457615c94615a6b565b60008712925087820587128484161615615cb057615cb0615a6b565b87850587128184161615615cc657615cc6615a6b565b505050929093029392505050565b6000808212827f7fffffffffffffffffffffffffffffffffffffffffffffffffffffffffffffff03841381151615615d0e57615d0e615a6b565b827f8000000000000000000000000000000000000000000000000000000000000000038412811615615d4257615d42615a6b565b50500190565b6000817fffffffffffffffffffffffffffffffffffffffffffffffffffffffffffffffff0483118215151615615d8057615d80615a6b565b500290565b600082615d9457615d94615b0d565b500490565b868152600073ffffffffffffffffffffffffffffffffffffffff808816602084015280871660408401525084606083015283608083015260c060a0830152615de460c0830184615650565b98975050505050505050565b60007fffffffffffffffffffffffffffffffffffffffffffffffffffffffffffffffff8203615e2157615e21615a6b565b5060010190565b600082615e3757615e37615b0d565b500690565b60008219821115615e4f57615e4f615a6b565b500190565b7f4e487b7100000000000000000000000000000000000000000000000000000000600052603260045260246000fd5b805163ffffffff811681146152dd57600080fd5b805160ff811681146152dd57600080fd5b600060c08284031215615eba57600080fd5b60405160c0810181811067ffffffffffffffff82111715615edd57615edd6152f2565b604052615ee983615e83565b8152615ef760208401615e97565b6020820152615f0860408401615e97565b6040820152615f1960608401615e83565b6060820152615f2a60808401615e83565b6080820152615f3b60a0840161586d565b60a08201529392505050565b600060ff831680615f5a57615f5a615b0d565b8060ff84160691505092915050565b600060ff821660ff841680821015615f8357615f83615a6b565b90039392505050565b7f4e487b7100000000000000000000000000000000000000000000000000000000600052602160045260246000fdfea164736f6c634300080f000a",
  "devdoc": {
    "version": 1,
    "kind": "dev",
    "methods": {
      "GUARDIAN()": {},
      "L2_ORACLE()": {},
      "SYSTEM_CONFIG()": {},
      "constructor": {},
      "depositTransaction(address,uint256,uint64,bool,bytes)": {
        "params": {
          "_data": "Data to trigger the recipient with.",
          "_gasLimit": "Amount of L2 gas to purchase by burning gas on L1.",
          "_isCreation": "Whether or not the transaction is a contract creation.",
          "_to": "Target address on L2.",
          "_value": "ETH value to send to the recipient."
        }
      },
      "finalizeWithdrawalTransaction((uint256,address,address,uint256,uint256,bytes))": {
        "params": {
          "_tx": "Withdrawal transaction to finalize."
        }
      },
      "initialize(address,address,address,bool)": {
        "params": {
          "_guardian": "Address that can pause withdrawals.",
          "_l2Oracle": "Address of the L2OutputOracle contract.",
          "_paused": "Sets the contract's pausability state.",
          "_systemConfig": "Address of the SystemConfig contract."
        }
      },
      "isOutputFinalized(uint256)": {
        "params": {
          "_l2OutputIndex": "Index of the L2 output to check."
        },
        "returns": {
          "_0": "Whether or not the output is finalized."
        }
      },
      "minimumGasLimit(uint64)": {
        "params": {
          "_byteCount": "Number of bytes in the calldata."
        },
        "returns": {
          "_0": "The minimum gas limit for a deposit."
        }
      },
      "proveWithdrawalTransaction((uint256,address,address,uint256,uint256,bytes),uint256,(bytes32,bytes32,bytes32,bytes32),bytes[])": {
        "params": {
          "_l2OutputIndex": "L2 output index to prove against.",
          "_outputRootProof": "Inclusion proof of the L2ToL1MessagePasser contract's storage root.",
          "_tx": "Withdrawal transaction to finalize.",
          "_withdrawalProof": "Inclusion proof of the withdrawal in L2ToL1MessagePasser contract."
        }
      },
      "version()": {
        "returns": {
          "_0": "Semver contract version as a string."
        }
      }
    },
    "events": {
      "Paused(address)": {
        "params": {
          "account": "Address of the account triggering the pause."
        }
      },
      "TransactionDeposited(address,address,uint256,bytes)": {
        "params": {
          "from": "Address that triggered the deposit transaction.",
          "opaqueData": "ABI encoded deposit data to be parsed off-chain.",
          "to": "Address that the deposit transaction is directed to.",
          "version": "Version of this deposit transaction event."
        }
      },
      "Unpaused(address)": {
        "params": {
          "account": "Address of the account triggering the unpause."
        }
      },
      "WithdrawalFinalized(bytes32,bool)": {
        "params": {
          "success": "Whether the withdrawal transaction was successful.",
          "withdrawalHash": "Hash of the withdrawal transaction."
        }
      },
      "WithdrawalProven(bytes32,address,address)": {
        "params": {
          "from": "Address that triggered the withdrawal transaction.",
          "to": "Address that the withdrawal transaction is directed to.",
          "withdrawalHash": "Hash of the withdrawal transaction."
        }
      }
    }
  },
  "numDeployments": 4,
  "solcInputHash": "0x0000000000000000000000000000000000000000000000000000000000000000",
  "storageLayout": {
    "storage": [
      {
        "astId": 139674,
        "contract": "src/L1/OptimismPortal.sol:OptimismPortal",
        "label": "_initialized",
        "offset": 0,
        "slot": "0",
        "type": "t_uint8"
      },
      {
        "astId": 139677,
        "contract": "src/L1/OptimismPortal.sol:OptimismPortal",
        "label": "_initializing",
        "offset": 1,
        "slot": "0",
        "type": "t_bool"
      },
      {
        "astId": 56151,
        "contract": "src/L1/OptimismPortal.sol:OptimismPortal",
        "label": "params",
        "offset": 0,
        "slot": "1",
        "type": "t_struct(ResourceParams)56134_storage"
      },
      {
        "astId": 56156,
        "contract": "src/L1/OptimismPortal.sol:OptimismPortal",
        "label": "__gap",
        "offset": 0,
        "slot": "2",
        "type": "t_array(t_uint256)48_storage"
      },
      {
        "astId": 55251,
        "contract": "src/L1/OptimismPortal.sol:OptimismPortal",
        "label": "l2Sender",
        "offset": 0,
        "slot": "50",
        "type": "t_address"
      },
      {
        "astId": 55256,
        "contract": "src/L1/OptimismPortal.sol:OptimismPortal",
        "label": "finalizedWithdrawals",
        "offset": 0,
        "slot": "51",
        "type": "t_mapping(t_bytes32,t_bool)"
      },
      {
        "astId": 55262,
        "contract": "src/L1/OptimismPortal.sol:OptimismPortal",
        "label": "provenWithdrawals",
        "offset": 0,
        "slot": "52",
        "type": "t_mapping(t_bytes32,t_struct(ProvenWithdrawal)55240_storage)"
      },
      {
        "astId": 55265,
        "contract": "src/L1/OptimismPortal.sol:OptimismPortal",
        "label": "paused",
        "offset": 0,
        "slot": "53",
        "type": "t_bool"
      },
      {
        "astId": 55269,
        "contract": "src/L1/OptimismPortal.sol:OptimismPortal",
        "label": "l2Oracle",
        "offset": 1,
        "slot": "53",
        "type": "t_contract(L2OutputOracle)55201"
      },
      {
        "astId": 55273,
        "contract": "src/L1/OptimismPortal.sol:OptimismPortal",
        "label": "systemConfig",
        "offset": 0,
        "slot": "54",
        "type": "t_contract(SystemConfig)57248"
      },
      {
        "astId": 55276,
        "contract": "src/L1/OptimismPortal.sol:OptimismPortal",
        "label": "guardian",
        "offset": 0,
        "slot": "55",
        "type": "t_address"
      },
      {
        "astId": 55278,
        "contract": "src/L1/OptimismPortal.sol:OptimismPortal",
        "label": "nativeTokenVault",
        "offset": 0,
        "slot": "56",
        "type": "t_address"
      },
      {
        "astId": 55280,
        "contract": "src/L1/OptimismPortal.sol:OptimismPortal",
        "label": "sharedSequencerAddr",
        "offset": 0,
        "slot": "57",
        "type": "t_address"
      }
    ],
    "types": {
      "t_address": {
        "encoding": "inplace",
        "label": "address",
        "numberOfBytes": "20"
      },
      "t_array(t_uint256)48_storage": {
        "encoding": "inplace",
        "label": "uint256[48]",
        "numberOfBytes": "1536",
        "base": "t_uint256"
      },
      "t_bool": {
        "encoding": "inplace",
        "label": "bool",
        "numberOfBytes": "1"
      },
      "t_bytes32": {
        "encoding": "inplace",
        "label": "bytes32",
        "numberOfBytes": "32"
      },
      "t_contract(L2OutputOracle)55201": {
        "encoding": "inplace",
        "label": "contract L2OutputOracle",
        "numberOfBytes": "20"
      },
      "t_contract(SystemConfig)57248": {
        "encoding": "inplace",
        "label": "contract SystemConfig",
        "numberOfBytes": "20"
      },
      "t_mapping(t_bytes32,t_bool)": {
        "encoding": "mapping",
        "key": "t_bytes32",
        "label": "mapping(bytes32 => bool)",
        "numberOfBytes": "32",
        "value": "t_bool"
      },
      "t_mapping(t_bytes32,t_struct(ProvenWithdrawal)55240_storage)": {
        "encoding": "mapping",
        "key": "t_bytes32",
        "label": "mapping(bytes32 => struct OptimismPortal.ProvenWithdrawal)",
        "numberOfBytes": "32",
        "value": "t_struct(ProvenWithdrawal)55240_storage"
      },
      "t_struct(ProvenWithdrawal)55240_storage": {
        "encoding": "inplace",
        "label": "struct OptimismPortal.ProvenWithdrawal",
        "numberOfBytes": "64",
        "members": [
          {
            "astId": 55235,
            "contract": "src/L1/OptimismPortal.sol:OptimismPortal",
            "label": "outputRoot",
            "offset": 0,
            "slot": "0",
            "type": "t_bytes32"
          },
          {
            "astId": 55237,
            "contract": "src/L1/OptimismPortal.sol:OptimismPortal",
            "label": "timestamp",
            "offset": 0,
            "slot": "1",
            "type": "t_uint128"
          },
          {
            "astId": 55239,
            "contract": "src/L1/OptimismPortal.sol:OptimismPortal",
            "label": "l2OutputIndex",
            "offset": 16,
            "slot": "1",
            "type": "t_uint128"
          }
        ]
      },
      "t_struct(ResourceParams)56134_storage": {
        "encoding": "inplace",
        "label": "struct ResourceMetering.ResourceParams",
        "numberOfBytes": "32",
        "members": [
          {
            "astId": 56129,
            "contract": "src/L1/OptimismPortal.sol:OptimismPortal",
            "label": "prevBaseFee",
            "offset": 0,
            "slot": "0",
            "type": "t_uint128"
          },
          {
            "astId": 56131,
            "contract": "src/L1/OptimismPortal.sol:OptimismPortal",
            "label": "prevBoughtGas",
            "offset": 16,
            "slot": "0",
            "type": "t_uint64"
          },
          {
            "astId": 56133,
            "contract": "src/L1/OptimismPortal.sol:OptimismPortal",
            "label": "prevBlockNum",
            "offset": 24,
            "slot": "0",
            "type": "t_uint64"
          }
        ]
      },
      "t_uint128": {
        "encoding": "inplace",
        "label": "uint128",
        "numberOfBytes": "16"
      },
      "t_uint256": {
        "encoding": "inplace",
        "label": "uint256",
        "numberOfBytes": "32"
      },
      "t_uint64": {
        "encoding": "inplace",
        "label": "uint64",
        "numberOfBytes": "8"
      },
      "t_uint8": {
        "encoding": "inplace",
        "label": "uint8",
        "numberOfBytes": "1"
      }
    }
  },
  "transactionHash": "0x97f7ce6a2525fa0a6f85ad2b0e8283505630b2e7b0821afb0ee7ab6dfa42ac9d",
  "userdoc": {
    "version": 1,
    "kind": "user",
    "methods": {
      "GUARDIAN()": {
        "notice": "Getter for the Guardian"
      },
      "L2_ORACLE()": {
        "notice": "Getter for the L2OutputOracle"
      },
      "SYSTEM_CONFIG()": {
        "notice": "Getter for the SystemConfig"
      },
      "constructor": {
        "notice": "Constructs the OptimismPortal contract."
      },
      "depositTransaction(address,uint256,uint64,bool,bytes)": {
        "notice": "Accepts deposits of ETH and data, and emits a TransactionDeposited event for use in         deriving deposit transactions. Note that if a deposit is made by a contract, its         address will be aliased when retrieved using `tx.origin` or `msg.sender`. Consider         using the CrossDomainMessenger contracts for a simpler developer experience."
      },
      "donateETH()": {
        "notice": "Accepts ETH value without triggering a deposit to L2.         This function mainly exists for the sake of the migration between the legacy         Optimism system and Bedrock."
      },
      "finalizeWithdrawalTransaction((uint256,address,address,uint256,uint256,bytes))": {
        "notice": "Finalizes a withdrawal transaction."
      },
      "finalizedWithdrawals(bytes32)": {
        "notice": "A list of withdrawal hashes which have been successfully finalized."
      },
      "guardian()": {
        "notice": "Address that has the ability to pause and unpause withdrawals."
      },
      "initialize(address,address,address,bool)": {
        "notice": "Initializer."
      },
      "isOutputFinalized(uint256)": {
        "notice": "Determine if a given output is finalized.         Reverts if the call to L2_ORACLE.getL2Output reverts.         Returns a boolean otherwise."
      },
      "l2Oracle()": {
        "notice": "Address of the L2OutputOracle contract."
      },
      "l2Sender()": {
        "notice": "Address of the L2 account which initiated a withdrawal in this transaction.         If the of this variable is the default L2 sender address, then we are NOT inside of         a call to finalizeWithdrawalTransaction."
      },
      "minimumGasLimit(uint64)": {
        "notice": "Computes the minimum gas limit for a deposit.         The minimum gas limit linearly increases based on the size of the calldata.         This is to prevent users from creating L2 resource usage without paying for it.         This function can be used when interacting with the portal to ensure forwards         compatibility."
      },
      "params()": {
        "notice": "EIP-1559 style gas parameters."
      },
      "pause()": {
        "notice": "Pauses withdrawals."
      },
      "paused()": {
        "notice": "Determines if cross domain messaging is paused.         When set to true, withdrawals are paused.         This may be removed in the future."
      },
      "proveWithdrawalTransaction((uint256,address,address,uint256,uint256,bytes),uint256,(bytes32,bytes32,bytes32,bytes32),bytes[])": {
        "notice": "Proves a withdrawal transaction."
      },
      "provenWithdrawals(bytes32)": {
        "notice": "A mapping of withdrawal hashes to `ProvenWithdrawal` data."
      },
      "systemConfig()": {
        "notice": "Address of the SystemConfig contract."
      },
      "unpause()": {
        "notice": "Unpauses withdrawals."
      },
      "version()": {
        "notice": "Returns the full semver contract version."
      }
    },
    "events": {
      "Paused(address)": {
        "notice": "Emitted when the pause is triggered."
      },
      "TransactionDeposited(address,address,uint256,bytes)": {
        "notice": "Emitted when a transaction is deposited from L1 to L2.         The parameters of this event are read by the rollup node and used to derive deposit         transactions on L2."
      },
      "Unpaused(address)": {
        "notice": "Emitted when the pause is lifted."
      },
      "WithdrawalFinalized(bytes32,bool)": {
        "notice": "Emitted when a withdrawal transaction is finalized."
      },
      "WithdrawalProven(bytes32,address,address)": {
        "notice": "Emitted when a withdrawal transaction is proven."
      }
    },
    "notice": "The OptimismPortal is a low-level contract responsible for passing messages between L1         and L2. Messages sent directly to the OptimismPortal have no form of replayability.         Users are encouraged to use the L1CrossDomainMessenger for a higher-level interface."
  }
}